S00E0000736F6D6178322E73726563BC
S1130000280C01200D050000090500000905000069
S113001009050000090500000905000000000000B2
S113002000000000000000000000000009050000BE
S11300300905000000000000090500000905000092
S11300400905000009050000090500000905000074
S11300500905000009050000090500000905000064
S113006009050000090500000905000049310000E8
S11300700905000009050000492C000009050000DD
S11300800905000009050000090500000905000034
S11300900905000009050000090500000905000024
S11300A009050000552C00000905000009050000A1
S11300B009050000552D0000692D00000905000008
S11300C009050000090500000905000009050000F4
S11300D009050000090500000905000009050000E4
S11300E009050000090500000000000000000000F0
S11300F000000000D92E0000D53B0000E93B0000C1
S1130100FD3B0000113C000009050000090500004A
S11301100905000009050000253C0000393C0000E9
S11301204D3C0000613C0000090500000905000089
S11301300905000009050000090500000905000083
S11301400905000009050000090500000905000073
S1130150090500000905000000000000000000007F
S1130160000000000000000000000000000000008B
S1130170000000000000000009050000CD29000077
S11301809D540000A9540000B5540000C15400005F
S11301900000000009050000090500000905000031
S11301A00905000009050000090500000905000013
S11301B00905000009050000090500000905000003
S11301C009050000090500000905000009050000F3
S11301D009050000090500000905000009050000E3
S11301E0090500000905000009050000E9410000B7
S11301F009050000090500000905000009050000C3
S113020009050000000000000000000009050000CE
S113021009050000090500000905000009050000A2
S11302200905000009050000090500000905000092
S11302300905000009050000090500000905000082
S11302400905000009050000090500000905000072
S11302500905000009050000090500000905000062
S11302600000000010B5054C237833B9044B13B1DA
S11302700448AFF300800123237010BDE800002080
S113028000000000988000000C4B43B10C480D495D
S113029010B5AFF300800C48036823B910BD0A48B9
S11302A0036833B97047094B002BF7D0BDE8104001
S11302B01847064B002BF5D0184700BF000000007C
S11302C098800000EC0000209880000000000000EE
S11302D008B5024B9847024B984708BD290C00000B
S11302E0316F00007047704738B50B4C0B4A012141
S11302F020460B4DA8470B4A00212046A8470A492F
S113030020460A4B98472046094B98471420094B2E
S11303109847002038BD00BFB40A0020E502000061
S1130320991E0000E7020000040100206D1E000079
S1130330411E00006D17000010B590B00446402225
S113034000216846084B984721466846074B984762
S11303506846074B984782B26946064B1868064BB5
S1130360984710B010BD00BF87700000E170000016
S1130370137100000401002075190000F0B591B05C
S113038004460F4640263246002168460D4B9847E6
S1130390214668460C4B984768460C4B98470C4DD1
S11303A082B2694628680B4B984714200A4CA04730
S11303B0324639462868094B98471420A04711B0A3
S11303C0F0BD00BF87700000E170000013710000F1
S11303D004010020751900006D170000A919000020
S11303E008B581F88000A0311046014B984708BD3C
S11303F07D03000030B591B0044690F88030052BA1
S11304005FD8DFE803F003101B252F3F334B1B6835
S1130410ADF800301B0C8DF802306A46014601200D
S11304202F4B98474DE02F4A6B4607CA03C31A70F7
S11304306A46214602202A4B984742E02A4A6B46E4
S113044007CA03C31A706A4621460320244B9847FF
S1130450264A6B4607CA03C31A706A46214604201B
S11304601F4B9847224A6B4607CA03C31A70D4F835
S11304708C3003B90133C4F88C306A46214600201D
S1130480174B984794F8903093B104F140052846EF
S1130490184B9847072814D9083817492844174B8C
S11304A0984770B9002384F8403084F8903008E00D
S11304B0134B03CB206061601B782372012384F803
S11304C0903023780BB911B030BD04F1A00120465F
S11304D00C4B98470023C4F89430F4E7E07A00000A
S11304E0E1030000E47A0000F07A0000FC7A0000E6
S11304F0087B000013710000207B0000FF700000E7
S1130500147B00007D030000FEE7000008B5154BD6
S1130510154A9A4209D0134B134A03E01168196033
S11305200433043211498B42F8D3114B02E0002208
S11305301A6004330F4A9342F9D30F4B0F4A22F047
S11305407F029A60D3F8882042F47002C3F88820AE
S1130550BFF34F8FBFF36F8F094B9847094B9847F1
S1130560FEE700BF0000002098800000E8000020A3
S1130570E8000020280C002000ED00E0000000004E
S1130580297000002D5D000008B5084A536943F442
S1130590804353614022064BC3F8A420054B98477F
S11305A0024605490548064B984708BD0008004027
S11305B0001C0040E541000000380040740B00209E
S11305C0191C0000244B04225A6002F180429A62F2
S11305D04FF04041996293F8422002F0FE0242F04B
S11305E0010283F8422093F8312002F0F00242F035
S11305F0010283F8312008225A6002F180429A6293
S1130600996293F8432002F0FE0242F0010283F85B
S1130610432093F8312002F00F0242F0100283F8D5
S113062031204FF48072C3F8842002F18042C3F871
S1130630A820C3F8A81093F8C82002F0FE0242F0E4
S1130640010283F8C82093F8B42002F0F00242F0CB
S1130650010283F8B420704700800041044A136A01
S113066043F0800313624022024BC3F820217047F9
S113067000080040001C004008B5054B9847054B96
S11306809847002204490548054B984708BD00BF18
S11306905D060000C5050000001C0043780A002028
S11306A01110000008B5054A936943F002039361F1
S11306B003490448044B984708BD00BF00080040A4
S11306C000200041740A00202517000008B54022CC
S11306D0244BC3F89020244A536943F48063536144
S11306E0224B0422C3F8842002F1804202F5003236
S11306F0C3F8A8201E49C3F8A81093F8C22002F03A
S1130700FB0283F8C22093F8C22002F0FE0242F0FA
S1130710010283F8C22093F8B12002F0F00283F8BA
S1130720B1204FF40052C3F88420124AC3F8A82021
S1130730C3F8A81093F8CD2002F0FB0283F8CD2073
S113074093F8CD2002F0FE0242F0010283F8CD209E
S113075093F8B62002F00F0283F8B620064B9847B0
S113076008BD00BF001C004000080040008000419C
S1130770000002C000200240D1170000024A1369A1
S113078043F04003136170470008004008B5034B71
S1130790984703490348044B984708BD7D07000068
S11307A000400041580A002019180000024A536909
S11307B043F40073536170470008004008B5034BCD
S11307C0984703490348044B984708BDAD07000008
S11307D0002400407C0A002061140000064B4022E3
S11307E0C3F89C204122C3F88C20044A536943F483
S11307F080535361704700BF001C00400008004054
S1130800104B93F8442002F0FE0242F0010283F8F8
S1130810442093F8322002F0F00242F0030283F8FD
S1130820322093F8452002F0FE0242F0010283F8E0
S1130830452093F8322002F00F0242F0300283F890
S1130840322070470080004110B582B0064B9847B3
S1130850002300931023054A05490648064CA04787
S1130860064B984702B010BDDD07000008010020C8
S113087000300040B40A0020AD1D00000108000053
S1130880064B4022C3F8DC204322C3F88C20044AE0
S1130890936943F400739361704700BF001C0040E8
S11308A000080040104B93F8492002F0FE0242F089
S11308B0010283F8492093F8342002F00F0242F039
S11308C0300283F8342093F8482002F0FE0242F00C
S11308D0010283F8482093F8342002F0F00242F039
S11308E0030283F8342070470080004110B582B0C1
S11308F0064B9847002300931023054A05490648F0
S1130900064CA047064B984702B010BD8108000072
S11309101801002000200141040B0020AD1D00003F
S1130920A5080000164B93F8512002F0FB0283F84F
S1130930512093F8512002F0FE0242F0010283F8A4
S1130940512093F8382002F00F0242F0300283F86D
S1130950382093F8502002F0FB0283F8502093F8DB
S1130960502002F0FE0242F0010283F8502093F876
S1130970382002F0F00242F0030283F83820704776
S113098000800041064B4022C3F8E0204122C3F816
S11309908C20044A936943F480639361704700BFD9
S11309A0001C00400008004008B5044B9847044967
S11309B00448054B9847054B984708BD8509000036
S11309C000400141540B0020C1180000250900001B
S11309D0284B4FF400525A619A6002F180429A62A5
S11309E04FF04041996293F84D2002F0FE0242F02C
S11309F0010283F84D2093F8362002F00F0242F0F2
S1130A00300283F836204FF480525A619A6002F122
S1130A1080429A62996293F84C2002F0FE0242F0FE
S1130A20010283F84C2093F8362002F0F00242F0E1
S1130A30030283F836204FF400425A600E4A9A6249
S1130A40A2F180229A6293F84F2002F0FB0283F80D
S1130A504F2093F84F2002F0FE0242F0010283F887
S1130A604F2093F8372002F00F0242F0300283F84F
S1130A70372070470080004100800240064B40222E
S1130A80C3F808214122C3F88C20044A136A43F0B6
S1130A9001031362704700BF001C004000080040BF
S1130AA008B5054B98474FF086410448044B9847D6
S1130AB0044B984708BD00BF7D0A00009C0A002033
S1130AC0FD190000D109000008B50248024B9847FF
S1130AD008BD00BF10E000E0591700001E4B4FF0A6
S1130AE080729A604FF0804199621C4898625A6102
S1130AF093F8582002F0FB0283F8582093F858200A
S1130B0002F0FE0242F0010283F8582093F83C20E0
S1130B1002F0F00242F0070283F83C204FF000722A
S1130B209A6099620E4999625A6193F8592002F0C9
S1130B30FB0283F8592093F8592002F0FE0242F098
S1130B40010283F8592093F83C2002F00F0242F08E
S1130B50700283F83C20704700800041000100C00F
S1130B60000200C04022074BC3F8A820A3F5A053FD
S1130B701A6942F480621A619A6942F001029A6128
S1130B80704700BF001C004008B5034B9847034B57
S1130B909847034B984708BD650B00006921000086
S1130BA0DD0A0000104B93F8CF2002F0FE0242F061
S1130BB0010283F8CF2093F8B72002F00F0242F02D
S1130BC0700283F8B72093F8CE2002F0FE0242F0C0
S1130BD0010283F8CE2093F8B72002F0F00242F02D
S1130BE0070283F8B72070470080004108B5084A1F
S1130BF0136943F4802313614022064BC3F8F020A9
S1130C0005490648064B9847064B984708BD00BF60
S1130C1000080040001C004000040042300A00208C
S1130C20D5160000A50B000070B57C4B98477C4B93
S1130C308021596199607B4D9D624FF040409862DC
S1130C4093F8472002F0FE0283F847204FF48062B5
S1130C505A6002F1804202F500329A62724A9A6244
S1130C6093F84A4004F0FB0483F84A4093F84A405E
S1130C7004F0FE0483F84A404FF400645C6004F11D
S1130C80804404F500349C629A6293F84B4004F06B
S1130C90FB0483F84B4093F84B4004F0FE0483F8C4
S1130CA04B404FF480449C619C604FF040249C6214
S1130CB0986293F84E4004F0FE0483F84E404FF4DB
S1130CC080245C619C604FF080449C62574E9E621D
S1130CD093F8526006F0FE0683F852604FF4002643
S1130CE05E619E609C62524E9E6293F8536006F071
S1130CF0FE0683F853604FF480165E619E609C622A
S1130D004C4C9C6293F8544004F0FE0483F8544025
S1130D101024C3F8844004F1804404F50034C3F87B
S1130D20A840C3F8A82093F8C44004F0FB0483F857
S1130D30C44093F8C44004F0FE0483F8C440202463
S1130D40C3F8844004F1804404F50034C3F8A84097
S1130D50C3F8A82093F8C54004F0FB0483F8C54009
S1130D6093F8C54004F0FE0483F8C5404024C3F85A
S1130D70844004F1804404F50034C3F8A840C3F867
S1130D80A82093F8C64004F0FB0483F8C64093F807
S1130D90C64004F0FE0483F8C640C3F89410C3F8B8
S1130DA08810C3F8A850C3F8A80093F8C71001F03E
S1130DB0FE0183F8C7104FF40071C3F8841001F1E9
S1130DC0804101F50031C3F8A810C3F8A82093F8B6
S1130DD0C92002F0FB0283F8C92093F8C92002F06D
S1130DE0FE0283F8C920144B9847144B9847144BC0
S1130DF09847144B9847144B9847144B9847144BF7
S1130E009847144B9847144B9847144B9847144BE6
S1130E109847144B9847144B984770BD612A0000BB
S1130E200080004180000040000002C0040000C0B7
S1130E30080000C0100000C079060000A5060000EC
S1130E40CD0600008D070000BD0700004908000022
S1130E50ED080000A9090000A10A0000C90A000069
S1130E6089050000890B0000ED0B000070470000AD
S1130E7010B582B0174C2046174B984740F2E773E1
S1130E80ADF8063009238DF8053006238DF80430BB
S1130E9011238DF8023000238DF801308DF80030D5
S1130EA001A920460D4B9847694620460C4B9847AC
S1130EB00C49042381F80434012381F810340223FB
S1130EC081F81134084A01F580612046074B9847A0
S1130ED002B010BD7C0A0020A514000039150000E2
S1130EE0D1140000280100206D0E0000A11500009F
S1130EF000B585B0838BADF8043002924FF4004303
S1130F00ADF80630039101A9024B984705B05DF88E
S1130F1004FB00BF2539000000B585B0838BADF814
S1130F20043002920023ADF80630039101A9024B6C
S1130F30984705B05DF804FB2539000000B585B07D
S1130F40838BADF80430029248F20103ADF8063009
S1130F50039101A9024B984705B05DF804FB00BF5B
S1130F602539000010B5054C2046054B98474FF431
S1130F70006250212046034B984710BD540B0020BB
S1130F80011900000D19000070B582B005460E4627
S1130F900A4C4FF4006250212046094B98472A0A14
S1130FA033788DF804208DF805508DF8063003222F
S1130FB001A92046034B984702B070BD540B002092
S1130FC00D190000F10E000070B582B005460E4602
S1130FD00B4C4FF40062502120460A4B98472B0AD1
S1130FE08DF804308DF80550022201A92046064BE5
S1130FF09847012231462046044B984702B070BD01
S1131000540B00200D190000190F00003D0F0000C3
S113101038B50C46054660B149B10120392206496C
S1131020064B984721462846054B984738BD002073
S1131030F4E70020F2E700BF2C7B0000C12400008D
S113104089280000EFF31083036072B6BFF35F8F4B
S11310507047BFF35F8F036883F31088704710F005
S1131060030F01D1012070470020704710B50C46D2
S113107080B2144B984780B1013C0B2C07D8DFE8B1
S113108004F01D081D0A1D0A1D1D0A1D0A1D00204D
S113109010BD0D4810BD0D4810BD013C0B2C07D8E8
S11310A0DFE804F00E080E0A0E0A0E0E0A0E0A0EEF
S11310B0002010BD064810BD044810BD054810BDF1
S11310C0044810BD5F100000803B2600008D2700FF
S11310D000EA240080DE28002DE9F0410C46904609
S11310E0866904E0204B9C4209D3E41A0136B7B266
S11310F038461E4B98470028F4D01D4BF3E70125D2
S1131100294630461B4B9847844203D3241A0135A1
S1131110EDB2F5E70121184B9C4206D9A4F5A83499
S1131120A4F5C0740131C9B2F5E70022B4F5616FCA
S113113004D3A4F561640132D2B2F7E700233B2C57
S113114003D93C3C0133DBB2F9E7A8F8067088F810
S1131150055088F8041088F8022088F8013088F8CF
S113116000400020BDE8F0818033E1015F10000001
S11311700085E2016D1000007F5101002DE9F04F60
S113118083B0CF88FEB2D0F818905FFA89F3F61ACC
S1131190F6B291F805800B7900938B78019391F85E
S11311A001A091F800B000252C4606E004F1F0748B
S11311B004F5993404F5C0740135B5420BD209EB3A
S11311C0050080B2124B98470028EFD004F1F17467
S11311D004F50544F0E7012505E0E9B238460D4B76
S11311E09847044401354545F7D3009B581E0A4BE4
S11311F003FB00404FF46164019B04FB0300CAEB52
S11312000A1A4FEA8A042044584403B0BDE8F08F18
S11312105F1000006D1000008051010038B50D46CC
S1131220D168EC682B7C013B042B07D8DFE803F082
S113123003080D141C00A14200D33C34EC6038BDFB
S1131240A142FBD304F56164F8E7A142F6D304F5A7
S1131250A83404F5C074F1E7A142EFD3517A508960
S11312600A4B98470444E9E7A142E7D35089084B65
S1131270984730B904F1F07404F5993404F5C07456
S1131280DCE704F1F17404F50544D7E76D100000C0
S11312905F10000070B586B005460C462A4B98478F
S11312A0064601AA01462846284B98470396237C04
S11312B0013B042B13D8DFE803F00324313B420045
S11312C0BDF80A3063819DF8093063729DF80830D7
S11312D023729DF80630A3719DF805306371261DB5
S11312E0314628461A4B9847E0606A46214628460C
S11312F0184B98473246E1682846144B984706B085
S113130070BDBDF80A3063819DF8093063729DF8A1
S1131310083023729DF80630A371E0E7BDF80A3067
S113132063819DF8093063729DF808302372D6E713
S1131330BDF80A3063819DF809306372CFE7BDF8C8
S11313400A306381CBE700BF69300000D910000088
S11313507D1100001D12000070B506460C4605689C
S11313604DB12B46002073B1E168DA6891420AD985
S113137018461B68F7E70C4B9847E168A6F1140080
S11313800A4B984704E0AB4204D02146084B9847E7
S1131390002070BD21463046034B9847E168A6F112
S11313A01400024B9847F3E7DD2400009D30000051
S11313B009250000037F13F0030F03D043F0020359
S11313C00377704770B586B005461C4B9847039069
S11313D06C694FF4CE721A49201C18BF0120194BB6
S11313E0984700E06C69ECB1E268039B9A4219D813
S11313F005F114063046144B98476369284698470C
S1131400637C022BEED16A46214628460F4B98474F
S1131410221DE16828460E4B9847214630460D4B65
S11314209847DFE72CB1E16828460B4B984706B094
S113143070BD00212846094B9847F8E76930000041
S1131440487B0000C1240000512500001D1200004B
S1131450D9100000591300009D300000D530000061
S113146038B50D4604464FF4E0720B49003018BFFE
S113147001200A4B98472368AB4208D04BB925603A
S11314802046074B984740F2B273A36138BD002051
S113149038BD6FF0110038BD487B0000C124000046
S11314A0552F000010B5044640F2E51205490030FE
S11314B018BF0120044B98472046044B984700204E
S11314C010BD00BF487B0000C1240000F12F0000C4
S11314D030B583B00D4604464FF403721049003012
S11314E018BF01200F4B984720460F4B98476A4678
S11314F0014620460D4B98472B788DF800306B78C9
S11315008DF80130AB788DF8023069462046084BDF
S1131510984701462046074B9847002003B030BD4A
S1131520487B0000C124000069300000D91000008D
S11315307D1100003130000030B583B00D46044603
S11315404FF409721049003018BF01200F4B98471F
S113155020460F4B98476A46014620460D4B984754
S11315602B788DF804306B788DF805306B88ADF8E6
S1131570063069462046084B984701462046074BEB
S11315809847002003B030BD487B0000C124000010
S113159069300000D91000007D11000031300000D6
S11315A02DE9F04182B00D469046374F04464FF482
S11315B013723946003018BF0120344EB04740F250
S11315C04D223946281C18BF0120B047C5F81480A5
S11315D0294620462E4B9847237F43F00103237767
S11315E06369002B42D004F1140629463046294B86
S11315F0984728B3B8F1000F16D029463046264B39
S1131600984729463046254B9847237F03F0FE032D
S1131610237713F0020F1BD1237F23F001032377D9
S1131620002002B0BDE8F081294630461A4B9847A5
S11316306369002BE9D100212046194B9847E4E760
S1131640B8F1000FE1D029463046144B9847DCE747
S113165001A8144B9847237F23F0020323772046E5
S1131660114B984701A8114B9847D5E7B8F1000FE3
S1131670D2D00F4920460A4B9847294604F114005A
S1131680064B9847C8E700BF487B0000C124000010
S113169095120000C72400006125000059130000C2
S11316A0D53000004510000039310000531000000F
S11316B0B513000008B5C36903B1984708BD08B560
S11316C0036A03B1984708BD08B5436A03B1984754
S11316D008BD000038B50D460446A8B191B10120FB
S11316E041220A490A4B984729462046094B984704
S11316F0034628B9084A6260084AA260084AE260C0
S1131700184638BD0020EBE70020E9E7647B0000C1
S1131710C1240000C1280000B5160000BF16000057
S1131720C916000038B50C46054660B149B1012020
S11317302B220649064B984721462846054B9847D5
S113174038BD0020F4E70020F2E700BF807B0000F2
S1131750C1240000A12A000008B5024B1860024B06
S1131760984708BD68050020393F000010B5044BB8
S11317701C68044B984701462046034B984710BD0C
S113178068050020512A0000453F000038B50225B5
S1131790002407E00D4A52F83330B3B1984738BDFE
S11317A0013AD5B2AC4210D82B195B10DAB2012A37
S11317B00BD81346054901EBC20149688142E9D0BF
S11317C08142EDD20132D4B2ECE738BD6C05002081
S11317D008B500230AE0084A02EBC3014FF0FF30CA
S11317E04860002142F8331001339BB2012BF2D937
S11317F00248034B984708BD6C0500208D17000074
S11318006D2B000008B5436903B1984708BD08B5BE
S1131810836903B1984708BD38B50D46044698B1AD
S113182081B1012038220949094B984729462046AD
S1131830084B9847034618B9074A2260074A626072
S1131840184638BD0020EDE70020EBE79C7B000044
S1131850C1240000D92C0000051800000F18000056
S113186010B584B00389ADF80430144602924FF4E5
S11318700043ADF80630039101A91438034B98478F
S113188010B9204604B010BD0446FAE7253900001B
S113189010B584B00389ADF804301446029248F2BE
S11318A00103ADF80630039101A91438034B98479E
S11318B010B9204604B010BD0446FAE725390000EB
S11318C038B50D4604465E220849003018BF012091
S11318D0074B984729462046064B9847034618B9B4
S11318E0054AA261054A6261184638BDB47B00000E
S11318F0C12400007D380000911800006118000028
S113190008B5014B984708BDAD380000C1F3090183
S113191002F480620A4382831046704770B586B031
S1131920044616461D468DF80710838BADF80C301F
S1131930012304930023ADF80E300DF10703059342
S113194003A9094B9847034610B1184606B070BD69
S113195048F20103ADF80E300596049503A920461C
S1131960014B98470346F0E725390000143008601E
S11319700020704770B50D461646044668B151B153
S1131980012034220649074B9847236832462946EA
S11319902046984770BD0020F3E70020F1E700BF20
S11319A0D07B0000C124000070B50D4616460446E5
S11319B068B151B101203D220649074B984763683D
S11319C0324629462046984770BD0020F3E70020A0
S11319D0F1E700BFD07B0000C124000008B5054B2F
S11319E0984718B9044B9847002008BD6FF00C00C5
S11319F008BD00BFA12E0000492A000038B50D46DD
S1131A000446C0B1A9B1012040220C490C4B9847AF
S1131A10204640F8045F29460A4B9847002807DB14
S1131A204FF40043A382084B2361084BE36000207A
S1131A3038BD0020E8E70020E6E700BFE47B0000B3
S1131A40C1240000753C0000F91A0000BD1A000012
S1131A5010B5044657220549003018BF0120044B35
S1131A609847201D034B984710BD00BFE47B00003E
S1131A70C1240000F13D000030B585B00C46054698
S1131A8098B181B10120B32209490A4B98472368D0
S1131A90019363680293A368039301A9281D064B6D
S1131AA0984705B030BD0020EDE70020EBE700BF0C
S1131AB0E47B0000C1240000253E000070B584B022
S1131AC00E4615460446A3220849003018BF0120DB
S1131AD0074B9847002302930196039501A9A4F1AB
S1131AE00C00044B984704B070BD00BFE47B0000B9
S1131AF0C1240000791A000070B584B00E46154662
S1131B00044687220849003018BF0120074B984734
S1131B10029600230193039501A9A4F10C00044B40
S1131B20984704B070BD00BFE47B0000C1240000EE
S1131B30791A000038B50D46044658B141B1012068
S1131B40BD220549054B98470C342C60002038BD54
S1131B500020F5E70020F3E7E47B0000C124000047
S1131B60F8B5076817B13C4600260BE00E4B9847C2
S1131B70F8BDA5682B449B1A01338D68AB4209D28A
S1131B802646246834B163689342F2D8A5689B1A48
S1131B902B44F2E7BC4203D03046044B9847F8BDCF
S1131BA0014B9847F8BD00BFDD2400000925000063
S1131BB0F8B54469066901360661037E13F0010F26
S1131BC005D1037E13F0020F01D1054609E0037E1F
S1131BD043F002030376F8BD6F69E3682046984733
S1131BE03C469CB16368F31AA26893420ED305F194
S1131BF014073846064B9847237C012BECD16660CA
S1131C00324621463846034B9847E5E7F8BD00BF06
S1131C1051250000611B000038B50D46044680B113
S1131C2069B101203B220849084B984729462046C0
S1131C30074B984700202061064B236038BD0020E5
S1131C40F0E70020EEE700BF007C0000C1240000A4
S1131C5029400000B11B000008B500238362C3695A
S1131C601BB1A0F108021046984708BD08B500232F
S1131C708362436A1BB1A0F108021046984708BD6D
S1131C8038B50446A0F108052C30034B9847236A65
S1131C900BB12846984738BD2126000070B50E4682
S1131CA015460446D8B1E1B1EAB9002040F23B122E
S1131CB00F49104B9847B4F84420B4F84C309A427A
S1131CC013D1A664A4F84C500023A4F84430012393
S1131CD0236304F10800084B9847284670BD002090
S1131CE0E4E70020E2E70120E0E76FF01B0070BDAD
S1131CF0187C0000C1240000FB37000010B5044626
S1131D00838FB0F84420934209D0026C591C818718
S1131D10D15C044B98472046034B984710BD034BB6
S1131D20984710BDF5370000FB370000033800006A
S1131D302DE9F04182B0884616460546A0B1A9B106
S1131D40B2B900204FF4AC721249134B984701A862
S1131D50124B984734352846114B9847074601A83B
S1131D60104B984700240BE00020EBE70020E9E744
S1131D700120E7E70134A4B2414428460A4B9847BE
S1131D802146A74201D9B442F4D3204602B0BDE8AB
S1131D90F08100BF187C0000C12400004510000041
S1131DA06126000053100000D9250000F8B50D4647
S1131DB016461F46044618B321B32AB333BB00208A
S1131DC03A221549154B98473A46314604F13400F6
S1131DD0134B9847E0B9294604F10800114B984782
S1131DE0034658B9104A6260104A2260104AA26041
S1131DF0104AE260104A2261104A62611846F8BD36
S1131E000020DDE70020DBE70020D9E70120D7E749
S1131E106FF00C03F2E700BF187C0000C12400003F
S1131E20952500005D370000311D00009D1C000059
S1131E30FD1C0000811C0000591C00006D1C0000EA
S1131E4010B5044661220649003018BF0120054B35
S1131E50984704F10800044B9847002010BD00BFC8
S1131E60187C0000C1240000E137000038B50C469E
S1131E70054650B139B1012077220549054B9847F1
S1131E802560002038BD0020F6E70020F4E700BFFD
S1131E90187C0000C124000070B50C4616460546A7
S1131EA083221749003018BF0120164B9847012C94
S1131EB010D024B1022C18D06FF00C0070BDAE62AB
S1131EC0321C18BF0122012105F108000E4B98476E
S1131ED0002070BD6E62321C18BF0122022105F180
S1131EE00800094B9847002070BDEE62321C18BFF1
S1131EF00122032105F10800034B9847002070BD1F
S1131F00187C0000C12400000D3800000023032BBE
S1131F1021DC134A02EB4312517881421DD010B4E4
S1131F2009E001335BB2032B0FDC0D4A02EB4312D1
S1131F30517881420BD05A01094CA25C002AF0D19D
S1131F4000F00F028A42ECD101E04FF0FF33184653
S1131F505DF8044B70474FF0FF331846704700BFDD
S1131F607C0500200020704738B504460D46094B17
S1131F709847094B03EB40139B78032B01D00020B7
S1131F8038BD054B03EB401083692946204698472A
S1131F9038BD00BF0D1F00007C0500202DE9F04175
S1131FA084B007460D469046484B98470446484E31
S1131FB006EB4016002D4FD1454A43010020F07036
S1131FC0D35C7BB1424B03EB441301229A70404B28
S1131FD003EB4414E3694246E1783846984704B079
S1131FE0BDE8F081B37896F90C40032B08D0F3696F
S1131FF006F10C020021707898470223B370EEE7D3
S1132000F36906F10C0201217078984770B1052339
S1132010B3700223F370002C06DB707840F080006C
S113202001212C4B9847DAE77078F9E70423B37061
S1132030737800220192029294420ADB43F08003F7
S11320408DF80C3001238DF80D3001A8224B9847F0
S1132050C5E703F00F03F3E7012D0AD0022D1CD0CE
S1132060032D2AD01A4B03EB401306229A70DA7020
S1132070ADE7174A4301D1180220C870D35C2BB1D5
S1132080134B03EB441305229A70A0E70B46987098
S1132090002138460F4B984799E70D4A4301D11860
S11320A00420C870D35C2BB1094B03EB4413012209
S11320B09A708CE702238B7091E7054B03EB401376
S11320C000229A700522DA7081E700BF0D1F00001C
S11320D07C050020D9500000955200002DE9F04104
S11320E005461D4B98470646440104F108031B4C62
S11320F01C44043421462846194B9847C0B208288A
S113210009D001212846174CA047012145F0800041
S1132110A047BDE8F08100212846124FB84745F09A
S1132120800800214046B8470C4B03EB46130122BC
S11321309A705B6921462846984708B1BDE8F0814A
S1132140064B03EB46160523B37001212846B84716
S113215001214046B847F1E70D1F00007C0500202F
S113216021520000D950000010B5124B98470028A6
S11321701EDB802200211048104B984700220AE001
S11321800D4B03EB4213FF2159700D4959619961BD
S1132190D9610132D2B2032AF2D90A4900200A4C89
S11321A0A0470A490120A04709490220A04700206E
S11321B010BD00BFC14A00007C05002087700000EC
S11321C0651F0000DD2000006D540000691F000041
S11321D09D1F000008B5014B984708BD49540000F5
S11321E008B5014B984708BD894B000008B5014B61
S11321F0984708BDF94B000008B5014B984708BD46
S11322000B4C000008B5014B984708BD1B4C00005F
S1132210F8B506460C4617460F4B9847002814DAC3
S1132220FF200D4B9847051E12DB3A4621463046E7
S11322300A4B984700280DDB094B68011A185670A1
S113224004F003041C540020F8BD6FF01300F8BD23
S11322506FF01400F8BD00BF0D1F0000294C0000F2
S11322607C05002008B5024600210846014B98472A
S113227008BD00BF1122000038B50546064B98473B
S1132280041E07DB2846054B9847054800EB44101D
S1132290FF23437038BD00BF0D1F0000494D0000EF
S11322A07C05002038B505460E4B9847041E16DB06
S11322B063010D4AD35C53B902220B4B03EB441365
S11322C09A702846094B9847002802DB38BD012242
S11322D0F3E7054B03EB44140023A37038BD6FF000
S11322E01100F3E70D1F00007C050020094E0000DB
S11322F02DE9F04786B00546067A30463C4B9847B0
S11323006C7A003418BF0124D5F80480071E69DBF9
S1132310F60904A8374B9847374B03EB47139B78D0
S11323208DF817309DF81730DBB2012B0CD004A8C0
S1132330324B98479DF81730DBB2052B25D0062B7E
S113234053D023B301201DE0DFF8ACA04FEA4719B6
S11323500AEB090303229A7004A8284B98471AF839
S11323600930BBB12B7A2A680192CDF80880002E7F
S113237035D043F080038DF80C308DF80D4001A862
S11323801F4B984706B0BDE8F0870220FAE76FF0CC
S11323901200F7E7184B03EB47139C7CDB7C04EB40
S11323A00324A4B24CB9144B03EB47170423BB70AA
S11323B04FF0000801242646D4E70F4B03EB4717E0
S11323C097F90C30DE0FA04500D9A046002B01DBA5
S11323D00024C7E7A0452CBF00240124C2E703F072
S11323E00F03C8E76FF01100CCE76FF00F00C9E7E7
S11323F00D1F0000451000007C0500205310000054
S11324009552000038B5044639B1012926D002217D
S1132410154B98470346184638BD144B9847051E7C
S113242019DB02212046104B984703460028F2D0BE
S1132430002120460C4B9847031EECDB0C4B03EBAE
S1132440451301229A700321D970DB6900222046CA
S113245098470023DFE76FF01103DCE70121024B0B
S113246098470346D7E700BFD95000000D1F00006E
S11324707C05002038B50D4614460E4B98473CB1F8
S1132480002815DB012D0AD025B1022D0CD038BD52
S1132490094CF5E7094B03EB4010446138BD074B89
S11324A003EB4010846138BD044B03EB4010C4615E
S11324B038BD00BF0D1F0000651F00007C05002013
S11324C000B900BE704703681BB18B4203D01B6880
S11324D0FAE70020704701207047000038B5044631
S11324E00D46064B984780F0010039220449C0B2DA
S11324F0044B984723682B60256038BDC72400002F
S1132500387C0000C124000003680B600160704740
S113251070B505460E4604680A4B984780F00100E2
S11325204F220949C0B2094B98472B681BB92E604A
S1132530336070BD1C462368002BFBD126603360DA
S113254070BD00BFC7240000387C0000C124000017
S113255003681BB11A680260184670470020704770
S1132560A1B110B40C460368994204D11B680360FE
S1132570012008E0134613B11A689442FAD13BB122
S113258022681A6001205DF8044B704700207047F0
S11325900020F8E770B50E461546044678B181B1BF
S11325A08AB9002028220A490A4B98476B1E1D420B
S11325B00BD163600020A060E060266070BD002045
S11325C0F0E70020EEE70120ECE76FF00C0070BDAF
S11325D0587C0000C124000038B50D460446A8B15B
S11325E091B1012040220C490C4B9847E268A36842
S11325F09A420DD0226861680B40D35C2B70A368AB
S11326000133A360002038BD0020EBE70020E9E798
S11326106FF0090038BD00BF587C0000C1240000E1
S113262038B50D46044651220B49003018BF01202D
S11326300A4B98472268E36861680B40D554E36805
S1132640A2689A1A61688A4201D9591AA1600133B1
S1132650E360002038BD00BF587C0000C1240000A6
S113266010B5044667220549003018BF0120044B09
S11326709847E068A368C01A10BD00BF587C0000EA
S1132680C12400000346064A126822B1044A1068B5
S11326900344136070470349014A1160F6E700BF21
S11326A0FC050020280C012000F13D40A0F5E0507D
S11326B0C0F387207047000010B4604B984200F0CC
S11326C09C805F4B984200F0A8800022036B13F0BB
S11326D0010F1BD1036B13F0030FFBD1038813F01D
S11326E0020F0DD003889BB223F002039BB2038038
S11326F0036B13F0030FFBD1036B13F0020FFBD139
S113270001230380036B13F0030FFBD1036B13F05E
S1132710010FFBD1A0F8482016234A4A03FB0123EA
S11327209B88C380036BC3F30B03002BFAD11623DE
S1132730444A03FB01239B790372036BC3F30B032A
S1132740002BFAD116233F4A03FB0123DA79827066
S11327501B898380036BC3F30B03002BFAD116236D
S1132760384A03FB01239B7A8372036BC3F30B0385
S1132770002BFAD11623334A03FB0123DB7AC372FD
S1132780036BC3F30B03002BFAD116232D4A03FB6F
S113279001239B898381036B13F0800FFBD11623E4
S11327A0284A03FB0123DB89C381036B13F4807F75
S11327B0FBD11623234A03FB01231B8A0382036BE9
S11327C013F4007FFBD116231E4A03FB01235B8A0B
S11327D04382036B13F4806FFBD11622194B02FB67
S11327E001310B7DC3704B880380036B13F0030F1F
S11327F0FBD100205DF8044B70474FF080131B6839
S11328005A09120202F4E0621C0A240104F0700462
S11328102243C3F382031A4358E74FF080131B6823
S1132820DA0C120202F4E0629C0D240104F070043C
S11328302243C3F302431A4348E700BF001C00438A
S1132840002000437C7C000008B50B4B9847002314
S11328503BB1882209490020094B984700231846B8
S113286008BD162202FB03F206498A5C9042F6D0A8
S11328700133DBB2ECE700BFA9260000947C000022
S1132880C12400007C7C000038B50C460546D922E2
S11328900749003018BF0120064B98472C6020469A
S11328A0054B984701462046044B984738BD00BF66
S11328B0947C0000C124000049280000B9260000CF
S11328C030B401608B6943F001038B6103689A693A
S11328D012F0010FFAD09A6942F002029A61344B65
S11328E0994211D00268936923F00203936102684C
S11328F0936923F00103936103689B6913F0010F4B
S1132900FAD1002030BC70472A4B1A4642F8040B17
S11329102949816101688C698C61016800248C609B
S11329200168264DCD61016840F63325CD60056808
S1132930234989B241F40031C5F8A0100168C1F8F7
S1132940BC400168C1F8C84005681E4989B241F01D
S11329500071C5F8C010016892B242F40032C1F8A7
S1132960F02002682821C2F88010016803F11402E3
S113297092B242F40032C1F8842002681C339BB244
S113298043F40033C2F888300368C3F890400E4B18
S11329904FF40042C3F88820BFF34F8FBFF36F8F0B
S11329A0C3F888219A6003680122DA659AE700BFB8
S11329B0000400420006002000000020070A02066E
S11329C0B00B0020900B002000E100E038B51D4B57
S11329D01D682B681C6D14F0010F1AD114F4007FCC
S11329E01BD114F0007F1CD114F0807F1ED114F48D
S11329F0000F08D0EB682A68526C12F0200F1AD02E
S1132A0002212846984714F0080F16D12B681C653C
S1132A1038BDAB6828469847E0E76B682846984776
S1132A20DFE7EB68032128469847DDE7EB680021E0
S1132A3028469847DBE70121E3E7EB6804212846B1
S1132A409847E3E700060020BFF34F8F30BF70477D
S1132A50C0EB00104301642000FB03F0704700004A
S1132A6010B5094A13889BB21380084B9847084B4A
S1132A709847084B98470220074CA047074B9847B4
S1132A8040F6FD70A04710BD004000417D2D0000C0
S1132A909D2D0000A12C0000612C0000B92D000028
S1132AA0016000207047000070B582B02A4B5A695B
S1132AB00192019A5A61294B1868EC222849003086
S1132AC018BF0120274B98474FF0FF3535E0264BC0
S1132AD003EBC6067568B5F1FF3F03D01F4B1B68B7
S1132AE0284698470123A340019C24EA0304019447
S1132AF0019B93FAA3F4B4FA84F40BB94FF0FF34B6
S1132B00B4F1FF3F14D00220002101E0013BD8B210
S1132B108142E0D84318C3F347031E46124A12F811
S1132B203320A242D3D0A242F0DA0133D9B2EFE784
S1132B30094B5A690192019A5A61019B4BB1019B5D
S1132B4093FAA3F4B4FA84F4002BD9D14FF0FF34F0
S1132B50D6E702B070BD00BF002800402C0600205C
S1132B60BC7C0000C1240000AC7C0000334B5B68DB
S1132B7013F0010F20D1314B5B6813F0030FFAD12E
S1132B802E4B1B7813F0020F0ED02C4A137803F04F
S1132B90FD031370294B5B6813F0030FFAD1274B25
S1132BA05B6813F0020FFAD10122244B1A70234BF5
S1132BB05B6813F0030FFAD1204B5B6813F0010F2D
S1132BC0FAD11E4A137803F0EF0313701B4B5B68B2
S1132BD013F0030FFAD1194B00225A709A6042F293
S1132BE0040199611A635A634FF48072DA614FF4F5
S1132BF080121A621A7842F002021A700F4B5B6854
S1132C0013F0030FFAD10E4B4FF48042C3F8802027
S1132C10BFF34F8FBFF36F8FC3F880211A604FF05B
S1132C200072C3F88020BFF34F8FBFF36F8FC3F8D8
S1132C3080211A60034B1860002070470028004070
S1132C4000E100E02C06002008B5014B984708BDC0
S1132C50A92A000008B5014B984708BDA92A00001D
S1132C6010F0010F08D00B4A0B4B1A620A4B5A683A
S1132C7043F6FD731A42F9D110F0020F08D0074A47
S1132C80054B5A62044B5A6843F6FD731A42F9D154
S1132C90704700BF06290100001C00400409010020
S1132CA00122014B5A7170470008004008B50369BE
S1132CB01A8A12F0010F05D001221A82036853B157
S1132CC0984708BD1A8A92B22AB140F25E221A824B
S1132CD0436803B1984708BD38B50C46054650B360
S1132CE0174B994229D000204B221649164B98477E
S1132CF02C612388C3F30D0323F0C0039BB223800C
S1132D00124B1D60124B4FF00051C3F88010BFF3FB
S1132D104F8FBFF36F8F4FF08042C3F88020BFF313
S1132D204F8FBFF36F8FC3F88011C3F880211960F0
S1132D301A60002038BD0020D6E70120D4E700BF88
S1132D4000400041D47C0000C12400003006002073
S1132D5000E100E008B5024B1868024B984708BD33
S1132D6030060020AD2C000008B5024B1868024B59
S1132D70984708BD30060020AD2C0000064B42F2F7
S1132D8086029A8200229A75DA75D96901F47C5117
S1132D90D9611A74704700BF00140040044A054BFF
S1132DA09A61044B1B6913F0020FFAD0704700BFFD
S1132DB00626000300100040364A136A23F00F036E
S1132DC043F004031362334B5A6843F6FD731A420B
S1132DD0F9D1304B5B6813F0040FFAD12E4B00226B
S1132DE01A772E4A9A622C4B93F82C3013F0100F5A
S1132DF0F9D10022284B83F82020274B93F82C305C
S1132E0013F0040FF9D10222234B1A77224B93F8C3
S1132E102C3013F0020FF9D11F4B5A6A5A621E4B21
S1132E2093F82C3013F0080FF9D180221A4B83F851
S1132E302020194B93F82C3013F0040FF9D1164BC2
S1132E4093F8203013F0010F1DD0134B1B6903F4CA
S1132E501063B3F5106FF8D10E4B5B68002BFBD1F8
S1132E600C4A136A23F00F0343F006031362094B61
S1132E705A6843F6FD731A42F9D1064B5B6813F0A6
S1132E80040FFAD17047044B1B6913F4807FFAD006
S1132E90E2E700BF001C00400010004000000104F5
S1132EA0022803D010D3031F032B0DD8094B5870ED
S1132EB00A23084A5278D2B2904208D0013B13F058
S1132EC0FF03F6D1002070476FF00C00704700201C
S1132ED0704700BF0004004000B583B00D4B9B78E1
S1132EE0DBB20193019B13F0020F06D00A4B1B685F
S1132EF01BB1084A5068984709E0019B13F0010F81
S1132F0005D0054B5B6813B1024A5068984703B07B
S1132F105DF804FB00000241D00B002010B504460C
S1132F200268918953899BB20B4013F4807F03D1CB
S1132F3013F4804F07D110BD4368984723684FF4BA
S1132F4080729A8110BD8368984723684FF4804249
S1132F509A81F0E710B50446002840D00368002B9E
S1132F603BD001202F221F491F4B98471F4B1C6049
S1132F7021680A6948F203031A42FAD10B8813F054
S1132F80020F0FD00B889BB223F002039BB20B807D
S1132F900A6948F203031A42FAD12268136913F04A
S1132FA0020FFBD1226813889BB243F00103138004
S1132FB0136913F0010FFBD123681A6912F0010F92
S1132FC0FBD14FF401421A80196948F203021142FD
S1132FD0FAD123680020186610BD0020C2E7002043
S1132FE0C0E700BFF47C0000C124000034060020C8
S1132FF010B50446A8B103688BB1012075220A49B3
S11330000A4B984721680B889BB243F002030B805C
S11330100A6948F203031A42FAD1002010BD0020C5
S1133020ECE70020EAE700BFF47C0000C1240000C4
S113303038B50D46044680B1036863B101208D2282
S11330400749084B984722689561136913F0080FE4
S1133050FBD1002038BD0020F1E70020EFE700BFDE
S1133060F47C0000C124000010B5044678B1036864
S11330705BB1012099220749074B984722681369DD
S113308013F0080FFBD1906910BD0020F2E7002077
S1133090F0E700BFF47C0000C124000038B50D4601
S11330A0044680B1036863B10120A3220749084B99
S11330B0984722681562136913F0600FFBD1002052
S11330C038BD0020F1E70020EFE700BFF47C0000EA
S11330D0C124000038B50D460446B8B103689BB15D
S11330E0012040F251121149114B984785B1656096
S11330F0104B4FF40062C3F880211A6023684FF428
S113310080725A81002038BD0020EAE70020E8E7F9
S113311023684FF480721A814FF40062054BC3F8A0
S11331208020BFF34F8FBFF36F8FEBE7F47C000079
S1133130C124000000E100E04FF40062014BC3F839
S11331400021704700E100E008B5024B1868024B0B
S1133150984708BD340600201D2F000070B487B0C6
S113316006466C460C4D0FCD0FC495E8030084E869
S11331700300002005280AD806AB03EB800353F8AC
S1133180183CB34201D00130F4E7C0B200E00020A3
S113319007B070BC704700BF0C7D000010B5846997
S11331A0237E13F0010F03D0A37D13F0010F12D17E
S11331B0237E13F0020F03D0A37D13F0020F0FD16F
S11331C0237E13F0040F15D0638B03F0370363B130
S11331D0FF23638310BD012323750368984710BD43
S11331E0022323758368984710BD4368A16AC9B256
S11331F0984710BD237EDB0900D110BD80232376C0
S1133200C3689847638B9BB26383F6E7064B984287
S113321003D0064B984203D07047054B1960F8E77A
S1133220034B5960F8E700BF003000400020014123
S11332303806002008B5044B98478000C0B22E30F1
S113324000F0FE0008BD00BF5D310000C36913F04B
S1133250010F09D1036843F002030360C36913F04B
S1133260030FFBD1002070476FF00300704700008C
S113327008B50C4B98470023012B0AD803EB4302F3
S1133280D100094A0A44127E904209D00133DBB2CC
S1133290F2E740F26D2205490020054B98470023D0
S11332A0184608BD5D3100000C7D0000907D0000D3
S11332B0C124000038B504463C4B9847E36913F039
S11332C0010F22D100EB4003DA00394B1344DA69D1
S11332D002F01C02E36913F0030FFBD1236813F01F
S11332E0020F0BD0236823F002032360E36913F079
S11332F0030FFBD1E36913F0020FFBD142F001028B
S11333002260E36913F0030FFBD1E36913F0010FAB
S1133310FBD100EB4003DA00254B1344DB69236047
S1133320E36913F0030FFBD100EB4003DA00204BF9
S113333013441B6A6360E36913F01F0FFBD142005F
S11333400244D1001A4B0B445A6AA260DB6913F49D
S1133350005F0AD113F4C04F07D100EB4003DA0039
S1133360134B13441B8DA3810FE042000244D10090
S11333700F4B0B44198DA28961F30C02A28193F8BF
S11333802A20A38962F34F33A381094A43001D18FD
S1133390E9000D46114491F82B10A1732A4492F8C8
S11333A02C3084F83030002038BD00BF713200006A
S11333B00C7D000008B50D4B9847002343B14FF432
S11333C075720B4900200B4B98474FF0FF3008BD36
S11333D003EB4302D100084A0A4492F84820904281
S11333E002D00133DBB2E9E758B208BD5D31000019
S11333F0907D0000C12400000C7D000038B5054616
S11334000C460846334B9847C0B2E36913F0010FEA
S113341022D100EB4003DA002F4B1344DA6C02F0A4
S11334201C02E36913F0030FFBD1236813F0020FAE
S11334300BD0236823F002032360E36913F0030F26
S1133440FBD1E36913F0020FFBD142F001022260C9
S1133450E36913F0030FFBD1E36913F0010FFBD110
S113346000EB4003DA001C4B1344DB6C2360E3697C
S113347013F0030FFBD100EB4003DA00164B1344A7
S11334801B6D6360E36913F0040FFBD14200024437
S1133490D100114B0B445A6DE26093F84F3003F0A6
S11334A00303AB81012B94BF00230123626A22F43E
S11334B0804242EA83336362E36913F0040FFBD171
S11334C000EB4000C200044B1344B3F85A30EB81C4
S11334D0002038BDB53300000C7D000070B50546F2
S11334E004692668C6F3C06640F2D3529949003095
S11334F018BF0120984B98476B68012B57D063681D
S113350023F480236360E36913F0040FFBD12B8859
S113351013F4806F56D06A8812F0010F04D06A88C1
S113352092B242F480626A8040F2FE7202EA43027E
S1133530E36913F0040FFBD1636A03F4804313437C
S113354043F400436362E36913F0040FFBD12E6973
S11335504FF6FF72337EDBB21846511E1AB10A468B
S113356013F0030FF6D02268C2F3C062E36913F0CC
S1133570040FFBD1638B9BB210F0010F00F09C8011
S113358013F0020F32D0012222766A8892B242F4FA
S113359080526A806A8892B222F4807292B26A80FF
S11335A013F0010F00F0D1806FF0040070BD002E05
S11335B0A5D0636843F480236360E36913F0040FC8
S11335C0FBD1A4E75B00DBB26A8802F001021A4374
S11335D0E36913F0040FFBD1636A03F480431343DC
S11335E06362E36913F0040FFBD1B0E713F0040F37
S11335F01FD16B8813F4806F39D02B881B125B00AA
S113360003F00602E36913F0040FFBD1636A03F4C9
S11336108043134343F0F1036362E36913F0040F3F
S1133620FBD16B889BB223F480639BB26B80002038
S113363070BD6B68002B04DD6B889BB243F4805330
S11336406B806B8813F4004F08D16B889BB223F412
S113365080739BB26B806FF0010070BD636843F4AC
S113366040336360E36913F0040FFBD1EDE768684E
S113367098B96B8813F4004F06D16B889BB223F47E
S113368080739BB26B8070BD636843F440336360A6
S1133690E36913F0040FFBD1EFE7AB681B78A36277
S11336A0E36913F0040FFBD1AB680133AB606B68C3
S11336B0013B6B60002070BD10F0020F48D06968B8
S11336C000293DD013F0040F3AD10139696001B9E2
S11336D0E2B1012918D06B684BB96B8813F4004F21
S11336E01DD16B889BB223F480739BB26B80AA6854
S11336F0531CAB60E36913F0040FFBD1A36A13708E
S113370002232376002070BD002AE4D0636843F4CA
S113371080236360E36913F0040FFBD1DBE7636884
S113372023F480736360E36913F0040FFBD16368CF
S113373043F440336360E36913F0040FFBD1D0E733
S1133740022323766FF0010070BD6FF0030070BD9B
S1133750002070BD907D0000C124000070B50C46AF
S11337600646CD221849003018BF0120174B984750
S11337702046174B9847054608B1284670BDB461EA
S113378031462046134B98472046134B9847002454
S113379016E0410900F01F02012393400F4A01F192
S11337A0200642F82630BFF34F8FBFF36F8F01F12D
S11337B0600642F8263042F821300130C0B20134AC
S11337C0032CE6D9D9E700BF907D0000C124000096
S11337D0B53200000D3200003532000000E100E097
S11337E08269136843F002031360D36913F0030F73
S11337F0FBD17047836999627047836901229A7586
S11338007047836902229A757047000070B50C46B0
S11338101546064640F22D221649003018BF0120F5
S1133820154B984734B1022C04D0012C11D0032C31
S113383017D070BDB36935B901221A75B3692DB9B2
S113384002221A7570BD01229A75F7E702229A7551
S113385070BDB36915B904221A7570BD04229A7536
S113386070BDB36915B180229A75E2E780221A759A
S113387070BD00BF907D0000C124000038B50D4626
S1133880044640F246520649003018BF0120054B59
S11338909847256129462046034B984738BD00BF09
S11338A0907D0000C1240000FD33000070B51B4E64
S11338B0044640F263523146003018BF0120184DCF
S11338C0A847246940F233623146201C18BF012006
S11338D0A847236843F002032360E36913F0030F4E
S11338E0FBD104214FF6FF72E36913F0040FFBD1FF
S11338F0638BC3F30113012B0BD0013A002AF3DCD1
S1133900013908D010236383E36913F0040FFBD15A
S1133910E8E7002070BD6FF0050070BD907D0000E9
S1133920C12400002DE9F04105460E460469DFF884
S1133930A08240F2FE524146003018BF0120A24F3F
S1133940B847286940F2FF524146003018BF0120B1
S1133950B8474FF4C0624146301C18BF0120B84735
S11339606B8813F4807F40F02A8173889BB243F400
S11339708073738096E8070085E80700636843F462
S113398080736360E36913F0040FFBD128468F4B07
S113399098470346002800F0B0806A8892B222F467
S11339A0807292B26A80BDE8F0816FF00400B7E0E3
S11339B0738813F4004F07D16B889BB223F4807390
S11339C09BB26B80BDE8F081636843F4403363606D
S11339D0E36913F0040FFBD1EEE713F0040F1FD1DA
S11339E06B8813F4806F39D02B881B125B0003F0B3
S11339F00602E36913F0040FFBD1636A03F4804306
S1133A00134343F0F1036362E36913F0040FFBD142
S1133A106B889BB223F480639BB26B8000206BE0C5
S1133A206B68002B04DD6B889BB243F480536B807E
S1133A306B8813F4004F08D16B889BB223F4807316
S1133A409BB26B806FF0010056E0636843F440332F
S1133A506360E36913F0040FFBD1EDE7686898B97C
S1133A606B8813F4004F06D16B889BB223F48073E8
S1133A709BB26B8040E0636843F440336360E36966
S1133A8013F0040FFBD1EFE7AB681B78A362E36983
S1133A9013F0040FFBD1AB680133AB606B68013BDF
S1133AA06B60002028E017F0020F00F08380696843
S1133AB0002977D013F0040F74D10139696009B972
S1133AC0002A55D0012951D06B684BB96B8813F487
S1133AD0004F56D16B889BB223F480739BB26B80EA
S1133AE0AA68531CAB60E36913F0040FFBD1A36A0B
S1133AF0137002232376002003466A8812F4807F21
S1133B005AD028694FF6FF72037EDBB21F46511E5E
S1133B10002A3FF44AAF0A4613F0030FF4D0002002
S1133B2000287FF445AF2268C2F3C062E36913F052
S1133B30040FFBD1638B9BB217F0010FB3D013F0CA
S1133B40020F3FF44AAF012222766A8892B242F40D
S1133B5080526A806A8892B222F4807292B26A8039
S1133B6013F0010F23D06FF00400C5E7002AABD097
S1133B70636843F480236360E36913F0040FFBD1AB
S1133B80A2E7636823F480736360E36913F0040FAE
S1133B90FBD1636843F440336360E36913F0040FBB
S1133BA0FBD197E7022323766FF00100A4E76FF0BF
S1133BB00300A1E700209FE71846BDE8F0816FF0FD
S1133BC00500BDE8F08100BFC1240000DD34000021
S1133BD0907D000008B5024B1868024B984708BD59
S1133BE0380600209D31000008B5024B1868024BCE
S1133BF0984708BD380600209D31000008B5024BE7
S1133C001868024B984708BD380600209D31000013
S1133C1008B5024B1868024B984708BD38060020C7
S1133C209D31000008B5024B5868024B984708BD07
S1133C30380600209D31000008B5024B5868024B3D
S1133C40984708BD380600209D31000008B5024B96
S1133C505868024B984708BD380600209D31000083
S1133C6008B5024B5868024B984708BD3806002037
S1133C709D31000070B506460C460846584B9847DF
S1133C800023002B68D00025002E71D0002C6DD0AD
S1133C90012040F6A7125349534B9847002D00F0DA
S1133CA09C80E36913F0010F1DD12B6803F01C0203
S1133CB0E36913F0030FFBD1236813F0020F0BD059
S1133CC0236823F002032360E36913F0030FFBD19D
S1133CD0E36913F0020FFBD142F001022260E369B1
S1133CE013F0030FFBD1E36913F0010FFBD1346030
S1133CF02B6803F01C03082B3CD0002C69D0002D4A
S1133D0065D0012040F637123649374B98472B6867
S1133D1023F4817323F001032360E36913F0030F99
S1133D20FBD16B6823F4383323F4107343F400336A
S1133D306360E36913F0170FFBD12B7B23736B7B59
S1133D4084F830306B6813F0070F44D101233371CA
S1133D50EB89F380002070BD042802D00133DBB26C
S1133D608FE703EB0315214B1D448DE7002090E7FB
S1133D7000208EE74CB335B3012040F64B121949AD
S1133D80194B98472B6823F4817323F001032360B4
S1133D90E36913F0030FFBD16B6823F4083323F4B6
S1133DA0107343F4003343F410736360E36913F056
S1133DB0170FFBD1AB6863626B7B84F83030E36927
S1133DC0002BFCD1BEE70020D7E70020D5E7002078
S1133DD098E7002096E70223B9E76FF00C0070BD66
S1133DE05D310000907D0000C12400007C7D000056
S1133DF010B5044668B103684BB1012040F60622B1
S1133E000549064B98472068054B984710BD00208C
S1133E10F4E70020F2E700BF907D0000C124000019
S1133E204D320000F0B587B007460D4604680B68B4
S1133E3001934B6802930023039304930679B8B16A
S1133E40A4B1012040F60B323449354B9847E3695D
S1133E5013F0070F5FD1E36913F0030FFBD123685D
S1133E6013F0020F1ED16FF0130052E01846E9E779
S1133E700020E7E700222BE091F801E040EA0E2061
S1133E800231019101320392A06213F0800F32D10A
S1133E900020002837DB0398AB68984202D3049AC9
S1133EA0934230D9237EDBB213F0040FE2D0A16A2F
S1133EB0029A4AB1501C02901170012E04D9901C30
S1133EC00290C1F307215170049A01320492012235
S1133ED0002ADAD1039A04999142D6D3F88813F0D0
S1133EE0010FD2D001990029CCD0481C0190087848
S1133EF0012EC1D8C6E74FF6FF7363838023237670
S1133F006FF01200C5E7237E13F0030FFBD00323E9
S1133F10237607B0F0BD6FF00300FAE7907D000050
S1133F20C1240000034B6FF07F425A6005221A60DF
S1133F30704700BF10E000E008B5014B984708BD8A
S1133F40253F0000080E0DE00D4B6FF07F405860D8
S1133F5098600B4B1B6813F4803FFAD001F17F414A
S1133F6001311046431EDAB20028EDD1044B5960EA
S1133F709960034B1B6813F4803FFAD0704700BF6D
S1133F8010E000E008B5C3689A7A12F0010F00D17E
S1133F9008BD01229A7203689847F9E7034B9842D7
S1133FA000D07047024B1960FBE700BF00380040A7
S1133FB04006002070B586B006466C46174D0FCDFE
S1133FC00FC495E8030084E803000023052B0AD8F6
S1133FD006AA02EB830252F8182CB24201D0013334
S1133FE0F4E7DBB200E0002300224AB14FF49E72F2
S1133FF00B4900200B4B98474FF0FF3006B070BDC3
S113400002EB8201880005490144097E994202D0ED
S11340100132D2B2E9E750B2F0E700BFAC7D000054
S1134020D87D0000C124000070B506460C46084641
S1134030664B98470546F4608D2265490120654B1F
S11340409847236913F0010F19D1236913F0030F63
S1134050FBD1236813F0020F0BD0236823F0020373
S11340602360236913F0030FFBD1236913F0020FBC
S1134070FBD101232360236913F0030FFBD12369D0
S113408013F0010FFBD105EB85039A00524B134447
S1134090DB692360236913F0030FFBD1AA002A44D0
S11340A091004D4B0B4493F82220E2731A8CE2806A
S11340B001222273DB6903F00C03082B56D0002B7A
S11340C063D105EB85039A00434B13449B8CA38374
S11340D0236913F0C00FFBD10023E383236913F09A
S11340E0C00FFBD101236372314620463B4B9847F6
S11340F005EB85039A00384B1344B3F91A30002BAF
S11341000DDB5A0903F01F03012101FA03F32032E6
S1134110334941F82230BFF34F8FBFF36F8F05EB64
S113412085039A002C4B1344B3F91A30002B09DB96
S11341305A0903F01F03012101FA03F360322849ED
S113414041F8223005EB8505AA00234B1344B3F94B
S11341501A30002B08DB590903F01F03012202FA6D
S113416003F31F4A42F82130002070BD1A4B0B4460
S11341705B6AE361236913F0C00FFBD10023236260
S1134180236913F0C00FFBD1ACE7042BAAD105EBD4
S113419085039A00104B134493F824302377236942
S11341A013F0C00FFBD100236377236913F0C00F12
S11341B0FBD105EB85039A00074B134493F8233096
S11341C0E376236913F0200FFBD18BE7B53F0000A2
S11341D0D87D0000C1240000AC7D00009D3F00009C
S11341E000E100E00020704708B5024B1868024B5C
S11341F0984708BD40060020853F00000020704716
S1134200144B1A68C2F34413C2F3822112F01F0242
S113421003D01F2A02D1092200E009221BB11F2B5F
S113422002D1192300E0192319B1072902D106216B
S113423000E0062143EA821343EA01334FF082424D
S11342401385D37843F00303D370D37843F00C037E
S1134250D37070478400800038B5837C03F00F036B
S1134260C27C02F0070101290CD003F108025201BB
S113427002F182421021D1715B0103F1824383F880
S1134280081138BD12F0400F0CD0C27C6FF38612B7
S1134290C27403F10802520102F1824280211171B9
S11342A040215171C27C6FF3C302C27409495A019F
S11342B08C180025A572A57608335B0103F18243AF
S11342C06F24DC7102F1824282F808418B6E807C9B
S11342D0984738BD4406002008B5837C03F00F03DB
S11342E0202202FA01F1C9B25B0103F1824383F88F
S11342F00811034B1B6F82680121807C984708BD1D
S11343004406002038B5847CFF2C03D0C37C13F012
S1134310400F00D138BDC27C6FF38612C274034AC9
S1134320156F82682046A847F4E700BF44060020C2
S113433030B583B0847C194D2D88ADF80450FF2C22
S113434022D004F00F03C47C14F0400F1CD0E9B158
S113435003F10804640104F18244802525710C46AC
S113436002A90C4414F8041C03F108056D0105F1BD
S11343708245E97114F8041C5B0103F1824383F85C
S113438008111146064B984703B030BD03F10804E9
S1134390640104F1824440256571E0E7EC7D00008E
S11343A00543000070B582B0837C03F00F03404ADC
S11343B09288ADF804203F4A02EB43120C46A9B39D
S11343C003F10801490101F182410D78C5F3021599
S11343D0C17C01F0070602EB0412917AC9B2022DE6
S11343E02DD011F0020F49D0917A6FF341019172EF
S11343F002AA111911F8045C03F10802520102F136
S11344008242D57111F8042C5B0103F1824383F8D5
S11344100821012E4AD1C37C13F0400F46D0D9099C
S11344208C4243D00022244B98473FE003F108011B
S1134430490101F182410D7805F00705C8E711F043
S1134440010FCED0917A6FF30001917202AA111973
S113445011F8045C03F10802520102F18242D571A1
S113446011F8042C5B0103F1824383F80821042230
S1134470211C18BF0121104B984717E004EB43019E
S11344800C4A02EB01120021917202AA144414F89E
S1134490041C03F10802520102F18242D17114F8A2
S11344A0042C5B0103F1824383F8082102B070BD40
S11344B0EC7D0000440600203143000070B5002468
S11344C019E0114E06F16000A5002A19930010337B
S11344D01844032104300D4B98472A1993003344A0
S11344E0FF2283F886202544AB001E44002386F86F
S11344F087300134E4B2082CE3D960220021024859
S1134500034B984770BD00BF4406002005430000DC
S1134510877000002DE9F0410546847C04F00F0407
S1134520524B03EB44130E4600294FD05869C0F395
S11345300D002B8A40F2FF32934249D0013B1BB25B
S11345400340EF7C07F0070736B104F1080252017B
S113455002F182420221D171A9680144A9606A680A
S1134560914245D292B28BB2D21A92B2EB7C13F042
S1134570200F2FD0B5F81080424500D890462B6804
S113458042461944E8683A4B9847EA68374B03EBCC
S113459044131A61354B03EB44135A6968F30D0253
S11345A05A615A696FF39B325A613EB9012F5BD04D
S11345B04A22630103F1824383F809210834640128
S11345C004F1824480236371BDE8F0810020B0E7E8
S11345D01BB2B5E7B2F5005F07D890462B681944C3
S11345E0224B03EB44131961D4E74FF40058F5E769
S11345F0EA7C12F0100F0FD0EB7C6FF30413EB7412
S11346001A4B03EB44135A696FF30D025A615A694A
S11346106FF39B325A61C8E7012F0ED0640104F195
S113462082444A2284F808212A8A93420CD0002129
S11346302846104B9847BDE8F081640104F1824498
S11346404B2284F80821EFE7EB7C6FF38613EB74BD
S1134650064BDB6EA968A87C98470028B4D1EB7C94
S113466043F04003EB74E2E74E22A2E74406002045
S113467071700000054300002DE9F84F0446857C65
S113468005F00F050F46002950D0684B03EB451386
S11346905B68C3F38D3A002F4BD0644B03EB451397
S11346A05B68C3F30D09268A40F2FF339E4201D0B2
S11346B0013EB6B209EA060B94F8138008F0070825
S11346C037B105F108035B0103F182430122DA717A
S11346D0E37C13F0200F0ED0626862B192B2A0683E
S11346E083B2D21A92B223681844E168934500D287
S11346F05A464F4B98476368F3B9E27C12F0100FA7
S11347001AD0E37C03F0EF0343F02003E374E06882
S113471046496A018B188850218A5A6861F39B3292
S11347205A605A686FF30D025A6044E04FF0000A71
S1134730B1E74FF00009B6E7EFB1228A93451AD2E8
S1134740E37C6FF30413E374A3684B44A360B8F1F0
S1134750010F5DD06B0103F18243252283F8082108
S11347601DB9E2686D01314B5A5100212046314B8D
S11347709847BDE8F88FA2685244A2609342E6D9F4
S11347809BB291B25B1A9BB2E17C11F0200F24D052
S1134790268AB34200D81E46E1686B01234AD150F1
S11347A0224B03EB45135A6866F39B325A605A68EE
S11347B06FF30D025A6047B9B8F1010F2FD02522CB
S11347C06B0103F1824383F8092108356D0105F17A
S11347D0824540232B71BDE8F88F218A8B420AD988
S11347E0B3F5005F0FD823EA060623681A446B0169
S11347F00E49CA50D4E78B4208D2E17C41F0200133
S1134800E1741E46F1E74FF40056EEE71E46ECE76E
S11348106B0103F182432D2283F80821A0E7034BA7
S113482003EB451300229A762D22C9E744060020A3
S1134830717000000543000070B54FF082431D8C79
S1134840ADB20DB10024DAE0998B1B8B9BB20B4007
S113485013F0040F10D113F4007F18D113F0800F5C
S11348603CD113F0700F44D113F0080F63D113F04F
S1134870010F75D1002307E004224FF082439A838D
S1134880874B1B6E98470123002BDBD070BD4FF084
S1134890824340F201229A839A8270221A8300236F
S11348A0012B14D819467E4A02EB4312128902F0F6
S11348B00F02032A02D00133DBB2F1E7784B03EB9A
S11348C041131989C1F30A1100221A8100E0002161
S11348D0734B5B6E032098470123D5E780224FF08A
S11348E082439A836E4B5B6E002105209847012317
S11348F0CAE74FF0824370229A839A8240F20122DF
S11349001A83684B93F8203013F0010F0DD0654BD8
S11349101B6903F41063B3F5106FF8D1604B5B6E41
S11349200021022098470123AEE75E4B1B6913F474
S1134930807FFAD0F2E74FF08243002483F80041ED
S113494008229A8370229A8240F201221A83564BDB
S11349509847534B5B6E214601209847012393E708
S11349604FF0824340F201229A839A8270221A8382
S11349704B4B5B6E002104209847012384E713F01E
S1134980100F09D113F0400F09D113F0200F34D0C8
S11349900021464B984730E0454B98472DE00121D4
S11349A0424B984729E013F0400F13D113F0080F3E
S11349B014D113F0020F15D1C27C02F00702012AB0
S11349C01BD113F0040F11D113F0100F15D0384B75
S11349D0984712E00121354B98470EE00121354BF1
S11349E098470AE00121344B984706E00021314BF7
S11349F0984702E000212D4B98470134E4B2082C7B
S1134A003FF644AF264A02F16000A3001E19B1002C
S1134A100E4610310144081D324492F88630FF2BB3
S1134A20EBD0837C03F00F0301229A401542E4D0BB
S1134A3003F10802520102F18242D2795B0103F1CF
S1134A40824393F809311340D7D0C27C02F0470166
S1134A50012994D012F0800FA5D113F0200FC9D1F1
S1134A6013F0040F10D113F0010F11D1C27C02F026
S1134A700702012AC1D113F0080F0DD113F0100F52
S1134A80BBD00B4B9847B8E700210A4B9847B4E7D3
S1134A9001210A4B9847B0E70121064B9847ACE740
S1134AA04406002000100040BD440000D94200002C
S1134AB059420000A5430000154500007946000056
S1134AC000B583B000238DF805304FF082439B7806
S1134AD013F0010F27D14FF082439B7813F0030F9B
S1134AE0F9D14FF082431B7813F0020F11D04FF02D
S1134AF08242137803F0FD0313704FF082439B78D6
S1134B0013F0030FF9D14FF082439B7813F0020F97
S1134B10F9D101224FF082431A704FF082439B78FF
S1134B2013F0030FF9D14FF082439B7813F0010F78
S1134B30F9D1114B114A1A665A669A66DA661A67EF
S1134B400F4B98470F4B984704224FF082431A703B
S1134B504FF082439B7813F0030FF9D14FF0824258
S1134B60054B53629DF8053043F001031381002087
S1134B7003B05DF804FB00BF44060020FD410000C3
S1134B80BD440000014200004FF082439B7813F0C3
S1134B90030F2BD14FF082439B7813F0030FF9D10D
S1134BA04FF082431B78DBB213F0020F0AD143F0BB
S1134BB002034FF0824213704FF082439B7813F04C
S1134BC0030FF9D10B4B4FF480329A604FF400324B
S1134BD09A604FF480229A604FF400229A6040F267
S1134BE08D224FF082431A83002070476FF010002B
S1134BF0704700BF00E100E04FF0824213899BB28E
S1134C0023F001039BB2138170474FF08242138952
S1134C109BB243F001031381704740F080004FF0D2
S1134C208243987270470000F0B547B210F00F0449
S1134C3005D0002F01DB254602E0A51C00E0254637
S1134C402E4601F003012346022C6AD805EB8505A4
S1134C504FEA850E3A4D754495F88650FF2D63D181
S1134C60A9B91CB1002F01DB0234E4B204EB8404C3
S1134C70A500334C2C4494F88640FF2C57D103EB09
S1134C804304A5002F4C2C44A468002C52D0002FC0
S1134C902EDB03EB4304A5002A4C2C44A468003407
S1134CA018BF01244CB1002F2CDB03EB4304A500F7
S1134CB0244C2C44248A94423FDB002F29DB03EB51
S1134CC043039C001F4B2344D3F808E01C4DB4005D
S1134CD0A719BB001F462B44C3F880E0A3F8842027
S1134CE0013183F887103D4485F886000020F0BD2B
S1134CF003EB4304A500134C2C44E468003418BFB0
S1134D000124CFE703EB4304A5000E4C2C44648A32
S1134D10D1E703EB43039C000A4B2344D3F80CE094
S1134D20D4E76FF01100F0BD6FF01300F0BD6FF029
S1134D301300F0BD6FF01200F0BD6FF01200F0BD73
S1134D4044060020EC7D00002DE9F04146B2F10F4D
S1134D5010F00F0405D0002E01DB234602E0A31C53
S1134D6000E023461D4603EB8307BA001032234FAD
S1134D703A44171D022C2ED803EB83039A00204BD0
S1134D80134493F88630FF2B25D0804603223846FF
S1134D901C4B984705EB85039A00194B134493F871
S1134DA0873003F00703012B17D0002E1DDB08F119
S1134DB00800400100F18240037803F0F803037017
S1134DC00F4AAB00581981001144002081F8870074
S1134DD0FF2381F88630BDE8F08108F10800400126
S1134DE000F1824000230370EAE70834640104F10F
S1134DF08244237803F08F032370E1E7A4060020A4
S1134E004406002031430000F0B544B210F00F0016
S1134E1005D0002C01DB034602E0831C00E00346BE
S1134E20194600F10802520102F182421278D2B20C
S1134E30022800F23E8103EB83039D00A44B2B4424
S1134E4093F88630FF2B00F03781A14B03EB40151C
S1134E5001EB8107BE00334493F8873003F0070366
S1134E60012B36D0002CC0F2C18012F0070F40F0A5
S1134E702C81974E8C006718BB001F46334493F86F
S1134E80873003F007031A4300F108035B0103F1C1
S1134E9082431A703E44B6F884208E4B03EA823370
S1134EA0B2F5007F00F2EA80B2F5807F00F2F7806D
S1134EB0802A00F2F680402A00F2F580202A00F2CF
S1134EC0F480102A00F2F380082A94BF0022012201
S1134ED0D5E012F0770F40F0F28000F108035B0197
S1134EE003F1824311221A70794B3344B3F88430AE
S1134EF0784A02EA8332B3F5007F0FD8B3F5807F96
S1134F0025D8802B25D8402B25D8202B25D8102B0D
S1134F1025D8082B94BF0024012400E0072442EA8A
S1134F2004726A60C3F30D04B3F5007F19D8B3F5B6
S1134F30807F51D8802B51D8402B51D8202B51D869
S1134F40102B51D8082B94BF002201220AE006241A
S1134F50E5E70524E3E70424E1E70324DFE702248B
S1134F60DDE7072244EA02726A6100F108035B018B
S1134F7003F1824340265E7180221A71544A02EB87
S1134F8040130020987298768D006B189C0014448E
S1134F9094F8863003F00F03D4F880E05C0117190D
S1134FA042F804E029448D002A44B2F884107A6857
S1134FB061F39B327A607A6860F30D027A60083399
S1134FC05B0103F18243B0221A715E7104F18244E1
S1134FD0102384F80931F0BD0622C3E70522C1E796
S1134FE00422BFE70322BDE70222BBE712F0700FE1
S1134FF068D1374E8B005F18BC002746344494F8C0
S1135000874004F0070442EA041200F10804640132
S113501004F1824422703E44B6F88430C3F30D0296
S1135020B3F5007F0FD8B3F5807F1DD8802B1DD832
S1135030402B1DD8202B1DD8102B1DD8082B94BF16
S11350400023012300E0072342EA03736B6100F1AC
S113505008035B0103F1824380221A711C4B03EBAA
S1135060401300209876F0BD0623EDE70523EBE717
S11350700423E9E70323E7E70223E5E7072243EAFA
S113508002736B6000F108035B0103F18243402269
S11350905A710F4B03EB401300209872F0BD0622A7
S11350A0EDE70522EBE70422E9E70322E7E7022222
S11350B0E5E76FF01100F0BD6FF01100F0BD6FF087
S11350C01300F0BD6FF01300F0BD6FF01300F0BDDE
S11350D04406002000C0FF0F70B443B2DC0F10F090
S11350E00F0005D0002B01DB034602E0831C00E027
S11350F003461E4603EB83039A001032464D2A44AE
S11351000432022800F28480012918D000293DD0FD
S113511006EB86039A00414B134493F8863003F060
S11351200F0308335B0103F182439A79102303FAD6
S113513004F4224214BF0120002070BC7047A5F182
S11351406001B300981982000A4492F8862002F0A4
S11351500F021025A540EDB202F10800400100F154
S113516082404571202000FA04F4E4B2520102F1B5
S1135170824282F809411E44B3000B4493F887200D
S113518042F0080283F887200020D6E7937C03F0DE
S11351900F0303F10801490101F1824188791021CB
S11351A0A140084225D0C9B203F10800400100F132
S11351B0824001712021A140CEB25D0105F18245FA
S11351C085F80861C07908420AD003F10801490151
S11351D001F18241CE71012000FA04F4E4B20C71B1
S11351E0D17C01F00701012905D0D37C6FF3C303FF
S11351F0D3740020A1E708335B0103F182439B7958
S113520013F0300FF5D1D37C6FF3C303D374F0E7FD
S11352106FF0110091E700BFA406002044060020AF
S113522030B400F00F001A4A4301D418D55862680C
S1135230C2F30D02022822D821B300F108035B0156
S113524003F182431B78DBB2112B1ED100F108035A
S11352505B0103F18243DB7913F0100F02D10020CC
S113526030BC70472C686B680C604B6000F108031D
S11352705B0103F182431021D9711046F0E76FF00E
S11352801100EDE76FF01100EAE76FF01200E7E7B5
S1135290440600202DE9F04F85B0037A4FFA83F8D5
S11352A04FEAD87913F00F0306D0B8F1000F01DBF1
S11352B01D4602E09D1C00E01D462C465C4901F1A0
S11352C06006AA0057194FEA870E0EF1100EB64475
S11352D00EF10406BD002944B1F8842040F2FF31E8
S11352E08A423DD0551EADB241680D40022B00F2FA
S11352F095800368B3F1005F0CD301EB030E4D4FAF
S1135300BE4507D813F0030F04D1B8F1000F29DB11
S113531091422AD204EB84039A00454B1344D3F8F8
S11353208030002B7DD04FF0010AB8F1000F09DB6B
S113533045B104EB84039A003D4B1344D3F8803009
S1135340002B71D004EB84039A00394B134493F877
S1135350873013F0080F0BD0022005B0BDE8F08FA2
S11353601546C1E74FF0000ADFE74FF0000ADCE71B
S1135370074603A8304B984704EB84039A002C4B50
S1135380134493F8873013F0400F25D1A30023442E
S11353909A00274B03EB020B0BF180031946DB79D0
S11353A043F040030191CB7103A8244B98473B6819
S11353B0CBF874307B68CBF878300023CBF87C30A2
S11353C00199CB7969F3C7136AF34513CB717B7ADF
S11353D03BB1DDB1002105E003A8184B984701203B
S11353E0BBE7002104EB8404A200114B134493F89F
S11353F0872061F3041283F88720B8F1000F07DBDC
S1135400002130460E4B98470020A6E70121E9E72A
S1135410002130460B4B984700209EE76FF01100A7
S11354209BE76FF0120098E76FF0110095E700BF5B
S113543044060020FF1F0420451000005310000004
S113544079460000154500000B4629B1012805D016
S113545008B9044A13667047034BF7E7014A5366D9
S1135460704700BF44060020FD4100000B4629B1EF
S113547030B1012807D0022808D07047054BF7E760
S1135480054A93667047044AD3667047024A136715
S1135490F3E700BFFD4100004406002008B5014BBE
S11354A0984708BD3948000008B5014B984708BD26
S11354B03948000008B5014B984708BD3948000039
S11354C008B5014B984708BD3948000030B583B092
S11354D005460C464FF4006218210748074B9847CD
S11354E08DF804508DF80540022201A9044B186878
S11354F0044B984703B030BD540B00200D19000035
S11355002C0800207519000030B583B00546094CFD
S11355104FF4006218212046074B984701230DF1F0
S1135520070229462046054CA0479DF8070003B012
S113553030BD00BF540B00200D1900001D190000E0
S113554038B5194C19492046194B98472046194B30
S113555098474FF4006218212046174B9847802142
S11355602420164CA0470A20154DA8475F2120206F
S1135570A04709212120A04740212220A047002143
S11355802320A04708212420A04710213220A0472F
S113559000213320A04726200A4B98472A21302097
S11355A0A0470A20A84738BD540B00202C0800202F
S11355B06D190000011900000D190000CD54000000
S11355C06D1700000955000038B50F4B98470F4C74
S11355D04FF48023A3614FF40025A5614FF4801399
S11355E0A3610B480B4B98478023C4F894302721C0
S11355F00F20094B9847A5611420084B98470420B5
S1135600074B984738BD00BFCD6C000000800041B7
S1135610A47A000039030000016100006D17000046
S1135620DD19000070B584B01B4C03A920461B4B48
S1135630984720461A4B984700238DF80830194C98
S11356404FF480456561022217490398174B984728
S1135650012202A90398164B9847A5619DF80830CA
S1135660872B17D06E2304AC04F8093D0A21114896
S1135670114DA8470A20114EB0472046104B9847B9
S113568081B22046A8470A20B04701210D48A84707
S113569004B070BD7923E6E79C0A0020351B0000A6
S11356A0511A000000800041140000207519000008
S11356B0A9190000207E00001D7000006D17000075
S11356C013710000B87F000030B583B0094C01A904
S11356D02046094B98472046084B9847084C4FF4FE
S11356E080456561032207490198074B9847A561E6
S11356F003B030BD9C0A0020351B0000511A000085
S113570000800041180000207519000030B591B0E8
S11357104022002168462A4B9847694629482A4D69
S1135720A8476420294CA04769462948A847642013
S1135730A0470A212748284DA8470A20A0476846C1
S1135740264B984781B26846A8470A20A047012102
S11357502348A8470C2223496846234B984710B195
S1135760012011B030BD06212048A84769462048D1
S1135770154DA8476420A04769461E48A8476420E1
S1135780A04769461C48A8476420A04769461B48AF
S1135790A8476420A047022219496846124B98473B
S11357A008B10120DDE769461648A8476420A047F0
S11357B069461548A8476420A0470020D1E700BFE8
S11357C0877000002C7E0000556000006D170000FB
S11357D0347E0000207E00001D7000001371000064
S11357E0B87F0000407E000023710000507E00005E
S11357F0587E0000647E0000707E0000787E000009
S1135800847E0000887E0000A87E000070B5A2B0EF
S1135810934B9847002862DD40242246002102A8C9
S1135820904B9847214602A88F4B98478F4902A86E
S11358308F4B984700284ED08E4902A88C4B98472E
S113584000284ED004228C4902A88C4B984700288B
S113585062D004228A4902A8884B9847002877D04E
S1135860884902A8824B9847002800F09380864913
S113587002A87F4B9847002800F0A780834902A81C
S11358807B4B9847002800F0E580814902A8784BBB
S11358909847002800F0E1807E4902A8744B98479D
S11358A0002800F029817C4902A8714B9847002800
S11358B000F02A81794902A86D4B9847002800F02E
S11358C04081774902A86A4B9847002840F03C8100
S11358D0744B984703E00F217348744B984722B0E8
S11358E070BD0C217248714B9847C820714CA04779
S11358F0714B98474FF4FA70A047704B5B8A13F0D2
S1135900010FFAD04AF217526C4B9A806B4B1B8AE8
S113591013F0010FFAD1E2E74022002112A8514B03
S1135920984712A903A8664B98470A2165485F4C1B
S1135930A0470A205F4DA84712A8634B984781B23D
S113594012A8A0470A20A84701216048A047C6E73B
S113595003AC20465C4EB0475D4B1B88235240226B
S1135960002112A83F4B984712A92046594B98474B
S11359700A2154484D4CA0470A204E4DA84712A86E
S1135980B04781B212A8A0470A20A84701214F4876
S1135990A047A4E74022002112A8324B984712A83E
S11359A04D4B98470A214748404CA0470A20414D97
S11359B0A84712A8444B984781B212A8A0470A20CE
S11359C0A84701214148A04789E70F20434B984746
S11359D033283BD06E2322AE06F8823D0C2140488A
S11359E0324DA8470A20334CA04701213046A8472E
S11359F00A20A04701213548A8470A20A04712A839
S1135A00384B9847384BD3F88010D3F8A020D3F8FC
S1135A10904054400C40544012A8344B984714F022
S1135A20040F15D0792322AC04F8813D31202B4B8F
S1135A309847012120461D4DA8470A201D4CA04728
S1135A4001212248A8470A20A04748E77923C2E752
S1135A506E23E8E7264B984741E7264B98473EE7F5
S1135A605D6F000087700000796F0000B87E000051
S1135A70FF700000D07E0000EC7E00002371000067
S1135A80F47E0000FC7E0000047F0000207F000004
S1135A902C7F0000387F0000447F0000507F00000E
S1135AA0587F00000D570000C07E00001D700000EC
S1135AB0DC7E00006D170000CD6C0000004000414A
S1135AC07D030000207E000013710000B87F0000F9
S1135AD0307E000055600000B960000009550000E8
S1135AE0107F0000451000000080004153100000AA
S1135AF025560000C956000022A9662301F8403D3E
S1135B001320144B9847EAE622AC002304F8403DE6
S1135B1021461320104B98470A20104EB0470A2103
S1135B200F48104DA8470A20B04720460E4B98470F
S1135B3081B22046A8470A20B04701210B48A84754
S1135B40CDE60B4B9847CAE617210A48054B984700
S1135B50C5E600BF890F0000C90F00006D170000E3
S1135B60207E00001D70000013710000B87F00004B
S1135B70C9550000607F00002DE9F04FB3B0584EC6
S1135B80002737704022394622A8DFF890A1D04779
S1135B9022A95448544CA0476420544DA84722A934
S1135BA05348A04709215348DFF87481C0471420A3
S1135BB0A84722A8DFF86CB1D84781B222A8C04711
S1135BC002224D4922A84D4B9847B0FA80F0400973
S1135BD0337860F30003337080F001040A20A8478F
S1135BE04022394612A8D04712A94548DFF8389117
S1135BF0C84742F21070A84712A94248C8474FF458
S1135C00FA70A8474022394602A8D04702A93C4866
S1135C10C8474FF4FA70A84709213B48C047C82039
S1135C20A84702A8D84781B202A8C047C820A847FD
S1135C309DF808000D2814BF00200120337860F37C
S1135C40C303337080F0010004440A20A8470F20E6
S1135C502E4B9847332814BF00200120337860F37B
S1135C604103337080F001000444E4B20A20A847E1
S1135C7032A901F8C47D0F20254B98479DF80430C4
S1135C80872B14BF00230123327863F3041232708C
S1135C9083F001032344DCB20A20A84732A9662317
S1135CA001F8C53D13201B4B984732A901F8C87D64
S1135CB01320194B98479DF80030662B14BF00231E
S1135CC00123327863F38202327083F001032344A8
S1135CD0DCB20A20A847204633B0BDE8F08F00BFED
S1135CE0E00B0020E07A00007D0300006D17000047
